:030000000200B744
:0C00B700787FE4F6D8FD7581200200FE81
:100003007061676520300073302E706963633D3122
:0B0013000073302E706963633D300005
:10026C0060200022000000000000000000000000E0
:10027C000000000000000000000000000000000072
:10028C000000000004080000000041004200410092
:0C029C00210041002000C100410043008F
:10022800900049EBF0A3EAF0A3E9F090004F74FFC7
:10023800F5F012021245F0602A90004CE0FBA3E4AE
:1002480075F001120212A9F0FA1201BAFF900049E2
:10025800E0FBA3E475F001120212A9F0FAEF120212
:040268000080C82228
:1002FD00758920758DF7758BF7759850D28ED2ACA8
:03030D00D2AF224A
:03002300020026B2
:10002600C0E0C0F0C083C082C0D075D000C000C0A0
:0700360001C002C003C00776
:10003D00E4FF30985DC298AF99900042E02422F51C
:10004D0082E43400F583EFF0900042E004F0EFF429
:10005D00703B900021E004F0E0B40336900042E0E4
:10006D00FF900020F090004C7401F0A37400F0A3F9
:10007D007422F0A3E4F0A3EFF07B017A0079001273
:10008D000228900042E4F0900021F08005900021BC
:05009D00E4F01202FD79
:1000A200D007D003D002D001D000D0D0D082D083EC
:0500B200D0F0D0E032A7
:0E031000C2ACC2998F993099FDC299D2AC222D
:0B02A900900046EBF0A3EAF0A3E9F0A0
:1002B400E4FDFC900046E0FBA3E0FAA3E0F98D82A4
:1002C4008C831201D3FF600A1203100DBD00010CD0
:0202D40080E1C7
:0102D6002205
:0B031E007FFF120310120310020310F7
:1002D700E4FDFCC3ED9FEE6480F8EC648098501554
:1002E700E4FBFA0BBB00010ABA03F8BBE8F50DBD46
:0502F70000010C80DE97
:0102FC0022DF
:10014300E4900044F0A3F053B1FD43B2021202FD68
:100153007F50FE1202D712031E7BFF7A007903122F
:1001630002A912031E7FD07E071202D7900020E05F
:1001730060FA900000E0249B7036900001E070303C
:10018300A3E06401702AA3E064017024900043E0BB
:10019300F4F07BFF600E7A00790A1202A912031EA3
:1001A300C293800C7A0079141202A912031ED2930F
:0701B300E4900020F080B58C
:1000C300020143E493A3F8E493A34003F68001F20F
:1000D30008DFF48029E493A3F85407240CC8C3333E
:1000E300C4540F4420C8834004F456800146F6DF0D
:1000F300E4800B010204081020408090026CE47E2F
:10010300019360BCA3FF543F30E509541FFEE49301
:10011300A360010ECF54C025E060A840B8E493A3C8
:10012300FAE493A3F8E493A3C8C582C8CAC583CAF3
:10013300F0A3C8C582C8CAC583CADFE9DEE780BEAB
:0102A8000055
:1001BA00BB010689828A83E0225002E722BBFE0243
:0901CA00E32289828A83E4932276
:1001D300BB010CE58229F582E5833AF583E02250E1
:1001E30006E92582F8E622BBFE06E92582F8E2222B
:0D01F300E58229F582E5833AF583E4932245
:10020000BB010689828A83F0225002F722BBFE01DD
:02021000F322D7
:10021200A3F8E0C5F025F0F0E5821582700215839F
:06022200E0C838F0E822FC
:00000001FF
