:020000040800F2
:10000000A00600200101000835220008511D00084B
:100010002522000889040008F129000800000000DA
:10002000000000000000000000000000CB220008DB
:10003000A504000800000000C922000839230008B8
:100040001B0100081B0100081B0100081B01000820
:100050001B0100081B0100081B0100081B01000810
:100060001B0100081B0100081B0100081B01000800
:100070001B0100081B0100081B0100088D0400087B
:10008000990400081B0100081B0100081B0100085F
:100090001B0100081B0100081B010008BD0400082B
:1000A000F9230008052400081B0100081B010008B3
:1000B0001B0100081B0100081B0100081B010008B0
:1000C0001B0100081B0100081B0100081B010008A0
:1000D0001B010008CD290008D9290008E5290008DE
:1000E000A70400081B0100081B010008DFF80CD062
:1000F00000F046F900480047152A0008A006002035
:100100000648804706480047FEE7FEE7FEE7FEE7B1
:10011000FEE7FEE7FEE7FEE7FEE7FEE7B1230008A5
:10012000ED000008F0B480EA0102D40F4200B2EB07
:10013000410F02D20246084611464A0042D0C30D82
:10014000DDB2C1F3C752AD1A202D35DAC1F3160165
:1001500041F4000204B15242C5F1200602FA06F150
:100160002A411044B3EBD05F23D0C4B1012DA0EBE2
:10017000C35009DCF0BC4FF0004202EAC352DBB2CC
:1001800000F5000000F0CDB8400000F1807000EBF9
:10019000C350A0F1807040EAD170490009E04908DD
:1001A00041EAC071A0EBC35000F50000400800EB2D
:1001B000C350F0BC00F0ACB86142012202EB410137
:1001C000001BF6E7F0BC704781F00041AAE780F021
:1001D0000040A7E780EA010210B502F000434000AA
:1001E00022D04A001FD0010E01EB1261C0F356006D
:1001F000C2F3560240F4000042F40002A0FB0220C9
:1002000000047F39140400D0401C50EA124001D48D
:100210004000491EC2B20C0604EBD010401C40083E
:10022000802A02D003E0002010BD20F00100002948
:1002300000DA0020184310BD30B480EA010202F059
:10024000004530F0004221F0004013D090B1C30DC2
:10025000D40DC2F31601C0F31600E41A41F40001F4
:1002600040F400027D34914201D3641C00E0490057
:10027000002C02DA30BC002070474FF4000000234D
:10028000914201D3891A034340084FEA4101F7D153
:1002900051B1914202D14FF0004105E002D24FF03E
:1002A000010101E06FF0010103EBC450284430BCB0
:1002B00000F02EB896230022114600F032B820F04C
:1002C0000040C10DC0F3160040F400007F2901DAA0
:1002D00000207047962903DCC1F19601C8407047A1
:1002E0009639884070470000002801DBC0F10040CB
:1002F000002901DBC1F1004181427047002801DB88
:10030000C0F10040002901DBC1F100418842704783
:100310000029A8BF7047401C490008BF20F0010019
:10032000704710B4B0FA80FC00FA0CF050EA0104F7
:1003300004BF10BC704749B1CCF1200421FA04F489
:1003400011FA0CF118BF012121430843A3EB0C0162
:10035000CB1D4FEA00614FEA102042BF002010BCC5
:10036000704700EBC35010440029A4BF10BC704775
:10037000401C490008BF20F0010010BC704700007D
:10038000064C074D06E0E06840F0010394E80700E2
:1003900098471034AC42F6D3FFF7ACFE842A00082D
:1003A000A42A000870B50A4A904201DD002070BD01
:1003B000084C094D11B11146FFF709FF2146FFF71F
:1003C00009FF2946FFF7AEFEBDE87040FFF777BF93
:1003D000000034431CC731410000FA4370B50446A5
:1003E000C168007C814204D8607C814201D3E0680E
:1003F00000E0E060FFF75EFF6168FFF775FF07D17F
:1004000000F0A8FAA060E068BDE87040FFF752BFB6
:1004100000F0A0FAA168401AFFF74CFF0146194806
:10042000FFF70AFF054600F095FAA060294620680C
:10043000FFF702FF0546E068FFF73CFF6168FFF742
:100440005DFF606829460AD2FFF76CFE0546E0684A
:10045000FFF730FF2946FFF747FF0FD809E0FFF706
:10046000B3FE0546E068FFF725FF2946FFF746FF84
:1004700004D8E068FFF71EFF606070BD2846656025
:1004800070BD000000007A44FEE70000014800F063
:1004900073B8000014020020014800F06DB800009D
:1004A00058020020704710B54FF4804000F05EF90C
:1004B000BDE810404FF4004000F058B9202000F093
:1004C00055B9000010B50021044800F021FFBDE837
:1004D00010400421014800F01BBF0000140100205F
:1004E00010B590F821100024022903D00421816363
:1004F00001243DE001680A6822F00E020A600168EA
:100500000A6822F001020A601A4A0168914201D188
:10051000012121E0174A1432914201D110211BE040
:10052000144A2832914201D1891515E0114A3C3212
:10053000914201D189140FE00E4A5032914202D10A
:100540004FF4803108E00B4A6432914202D14FF4FB
:10055000801101E04FF08071064A083A5160012194
:1005600080F82110002180F82010416B01B18847EC
:10057000204610BD080002402DE9F05FC16B0C68F9
:1005800001680B68D0F840C0042202FA0CF2494D11
:10059000DFF824A1494E4A4FDFF828B1DFF828E1FF
:1005A00022422CD05A072AD50A68920603D40A6838
:1005B00022F004020A600168A94201D1042219E074
:1005C000514501D1402215E0B14202D14FF4806281
:1005D00010E0B94202D14FF480420BE0594502D1FC
:1005E0004FF4802206E0714502D14FF4800201E011
:1005F0004FF080622F4908394A60C16A3BE04FF0F2
:10060000020808FA0CF818EA040F4FF000094FF03E
:10061000010235D05FEA837832D50B689B0605D49A
:100620000B6823F00A030B6080F821200168A942BF
:1006300001D1022219E0514501D1202215E0B14239
:1006400002D14FF4007210E0B94202D14FF40052CF
:100650000BE0594502D14FF4003206E0714502D15A
:100660004FF4001201E04FF00072124908394A605D
:1006700080F82090816A00291AD0BDE8F05F084711
:10068000082505FA0CF5254212D01B0710D50B687A
:1006900023F00E030B6090F84010C36B02FA01F1D7
:1006A0005960826380F8212080F82090016BE2E796
:1006B000BDE8F09F080002401C00024030000240EC
:1006C00044000240580002406C00024030B548B37C
:1006D00008C8154914221944B1FBF2F18900C1631D
:1006E00012498163022141771A6843F6F0718A4307
:1006F000D0E900142143D0E902452C432143046989
:100700002143446921438469214311431960002135
:1007100041628162C16201634163012242770177D4
:10072000084630BD012030BDF8FFFDBF000002408B
:1007300070B5044600F00EF90546601C02D004486E
:100740000078044400F006F9401BA042FAD370BDC3
:10075000240000200121044AB0F5804F02D0B0F5FA
:10076000004F00D11170704705000020044910B5FA
:100770000A68024202D00860FFF7ECFF10BD0000DB
:10078000140401402DE9F84FDFF890A100220AF18E
:10079000040B144601274FF00F090BF1040E00BFA4
:1007A0000B6807FA04F52B40AB4274D1DFF870C137
:1007B0004E68A6EB0C0866452BD00DDC032E34D01A
:1007C00005DC36B3012E19D0022E2FD11BE0112EDD
:1007D00016D0122E2AD119E0B8F5881F19D006DCE0
:1007E000B8F5803F15D0B8F5801F1FD111E0B8F5DE
:1007F000001F0ED0B8F5041F18D10AE0CA6815E032
:10080000CA68121D12E0CA6808320FE0CA680C32CA
:100810000CE08A682AB1012A4FF0080203D0456132
:1008200004E0042202E0056100E00022FF2B01D871
:10083000064601E000F104064FEA840501D9A5F15E
:100840002005D6F800C009FA05F82CEA080C02FACF
:1008500005F54CEA050CC6F800C04D68ED0057D50B
:10086000304DAE6946F00106AE61AD6924F0030675
:1008700005F0010500952C4D06EB050CDCF8085041
:10088000A6074FEA167809FA08F6B543274EB04294
:1008900002D1002610E03BE0254EB04201D10126F6
:1008A0000AE0244EB04201D1022605E0224EB042B9
:1008B00001D1032600E0042606FA08F62E43CCF800
:1008C00008604D68DAF80060ED03554601D51E4317
:1008D00000E09E432E604D68DBF80060AD035D468E
:1008E00001D51E4300E09E432E604D68DEF8006097
:1008F000ED02754601D51E4300E09E432E604D6813
:10090000AD020E4D2E6801D51E4300E09E432E60C1
:10091000641C102CFFF444AFBDE8F88F00040140C4
:1009200000001110001002400000014000080140CA
:10093000000C014000100140001401400C04014073
:10094000C2684A40C26070470AB101617047090439
:10095000FBE7000001488068704700002400002089
:1009600002488168027811448160704724000020A9
:10097000074810B5016841F010010160032000F044
:100980009DF8002000F006F800F024F8002010BDCB
:100990000020024070B50D4D04464FF47A7128785E
:1009A000B1FBF0F00A490968B1FBF0F000F02DFB53
:1009B00048B9102C07D200222146501E00F05EF8E4
:1009C00000206C6070BD012070BD0000240000207C
:1009D00030000020214808B5816941F001018161A2
:1009E000816901F001010091C16941F08051C1614B
:1009F000C06900F080500090032000F05FF80022F2
:100A000011466FF00B0000F039F8002211466FF02C
:100A10000A0000F033F8002211466FF0090000F0E0
:100A20002DF800221146501F00F028F80022114630
:100A3000101F00F023F800221146901E00F01EF84F
:100A400000221146501E00F019F80548416821F0B7
:100A5000E06141F00071416008BD000000100240FB
:100A60000000014000F01F02012191404009800078
:100A700000F1E020C0F8001170470000F0B40E4B08
:100A80001B680C46C3F30223C3F10705042D00D9EC
:100A90000425191D072901D2002300E0DB1E0126D1
:100AA00006FA05F1491E214099409E40761E1640E7
:100AB0003143F0BC01F0BFBB0CED00E0064900F093
:100AC000070208684FF6FF03184040EA0220034A75
:100AD00010430860704700000CED00E00000FA05CC
:100AE0002DE9F047DFF83C8105460E46D8F80000B6
:100AF00000F00700B0420CD2D8F8001021F0070136
:100B00003143C8F80010D8F8000000F00700B042E8
:100B100063D12878444C800705D56068A96820F027
:100B2000F000084360602878C00745D06868012855
:100B300016D02168022816D0890700294DDA61688D
:100B400021F0030101436160FFF704FF6968074674
:100B500041F2883001290FD00229814619D027E0BF
:100B600021688903E9E78901E7E700BFFFF7F2FEA3
:100B7000C11B494501D918E081466068C0F3810076
:100B80000128F3D118E000BFFFF7E4FEC11B49457F
:100B90000BD86068C0F381000228F5D10CE000BFDB
:100BA000FFF7D8FEC11B494502D90320BDE8F087F5
:100BB000606810F00C0FF3D1D8F80010404601F037
:100BC0000701B1420BD9016821F0070131430160EF
:100BD000006800F00700B04201D00120E6E7287865
:100BE000400705D56068E96820F4E060084360606C
:100BF0002878000706D56068296920F4605040EA2B
:100C0000C100606000F03CF86168084AC1F303115C
:100C1000515CC840064908600020FFF7BBFE002079
:100C2000C4E7000000200240001002406C2A0008C7
:100C300030000020014800687047000030000020AC
:100C40000448054900684968044AC1F30221515C1F
:100C5000C840704730000020001002407C2A000885
:100C60000448054900684968044AC1F3C221515C3F
:100C7000C840704730000020001002407C2A000865
:100C800012A185B00FC98DE80F0014A0144A0068A6
:100C900004905168134801F00C03042B10D0082B6A
:100CA0000ED1C1F38343C9031DF803000AD551686F
:100CB00004AAC1F34041515C0A4A5043B0FBF1F031
:100CC00005B0704708494843FAE7000002030405ED
:100CD000060708090A0B0C0D0E0F10100102000088
:100CE0000010024000127A0000093D002DE9F84F83
:100CF00004460078B94DC00748D06868C0F3810049
:100D0000012807D06868C0F38100022809D168680B
:100D1000C00306D52868800338D5606800286FD0E6
:100D200034E06068B0F5803F0BD010B1B0F5A02F73
:100D300011D0286820F480302860286820F48020B2
:100D400002E0286840F480302860606888B1FFF7CE
:100D500001FE064609E0286840F480202860F0E79C
:100D6000FFF7F8FD801B642875D828688003F7D545
:100D70000CE0FFF7EFFD064605E000BFFFF7EAFDD8
:100D8000801B6428F0D828688003F7D42078944E1C
:100D900080074FF001094FF000083BD5686810F05C
:100DA0000C0F07D06868C0F38100022809D1686879
:100DB000C00306D42868800714D5206901281FD1F4
:100DC00010E02069B0B1C6F80090FFF7C3FD0746F8
:100DD00005E000BFFFF7BEFDC01B0228C4D828688D
:100DE0008007F7D52868616920F0F80040EAC10063
:100DF00028600FE0C6F80080FFF7ACFD074606E06C
:100E0000E9E000BFFFF7A6FDC01B022823D8286831
:100E10008007F7D4207800072CD57248A169D9B192
:100E2000C0F80090FFF796FD074604E0FFF792FD3B
:100E3000C01B02280FD8686A8007F7D56A484FF4AC
:100E4000FA510068B0FBF1F0009000BF0098411E1D
:100E50000091FAD20EE080E0C0F80080FFF77AFD42
:100E6000074604E0FFF776FDC01B022875D8686AC4
:100E70008007F7D42078400760D5E8690027C000D4
:100E800008D4E86940F08050E861E869012700F083
:100E90008050009055480168C90513D40168834605
:100EA00041F480710160FFF755FD824606E000BF06
:100EB000FFF750FDA0EB0A0064284ED8DBF80000D5
:100EC000C005F5D5E06801280AD008B1052813D07F
:100ED000286A20F001002862286A20F0040002E05D
:100EE000286A40F001002862E06841F2883B98B12E
:100EF000FFF730FD82460BE0286A40F004002862CC
:100F0000EEE700BFFFF726FDA0EB0A0159455AD8CE
:100F1000286A8007F6D50CE0FFF71CFD824605E045
:100F2000FFF718FDA0EB0A0159454CD8286A800745
:100F3000F6D41FB1E86920F08050E861E06988B319
:100F40006968C1F38101022945D00228C6F8608092
:100F500004D0FFF7FFFC044638E034E0FFF7FAFC6A
:100F6000074604E0FFF7F6FCC01B02282BD82868D0
:100F70008001F7D4206AB0F5803F05D16868A16888
:100F800020F4003008436860D4E908010843696828
:100F900021F4741108436860C6F86090FFF7DAFC2A
:100FA000044606E015E000BFFFF7D4FC001B022852
:100FB00009D828688001F7D50BE000BFFFF7CAFC0D
:100FC000001B022802D90320BDE8F88F28688001A1
:100FD000F4D40020F8E70120F6E7000000100240FA
:100FE0000000424280044242300000200070004075
:100FF0004FF0E0210428086903D020F004000861C4
:10100000704740F00400FAE7704710B5401EB0F199
:10101000807F01D3012010BD4FF0E02460610F21DB
:10102000601701F008F90020A0610720206100206E
:1010300010BD10B5FFF7E8FF10BD7047704710B541
:1010400090F83C20012A25D0012280F83C20CA6873
:101050008C6822F4407222434C6822F4806222435E
:101060000C6822F4006222430C6922F4805222436D
:101070004C6922F4005222438C6922F480422243BC
:1010800022F40041026800232143516480F83C307F
:10109000002010BD022010BD30B590F83C20012A80
:1010A00020D0012280F83C20022380F83D300368E4
:1010B0005C6824F070045C6003685C680D682C4315
:1010C0005C6003689C6824F080049C6003689C68F2
:1010D00049680C439C6080F83D20002180F83C105A
:1010E000084630BD022030BD10B5040003D094F88E
:1010F0003D0010B107E0012010BD002084F83C0045
:10110000204600F00DF8022084F83D00211D2068E3
:1011100001F07EF9012084F83D00002010BD0000A0
:1011200008B5154A01681548914219D1816941F401
:10113000006181618069002200F400600090114626
:101140001820FFF79BFC1820FFF78CFC00221146AB
:101150001920FFF793FCBDE808401920FFF782BC77
:10116000074A914207D1C16941F00201C161C069DA
:1011700000F00200009008BD002C01400010024069
:101180000004004070B5044690F83C00012817D0D8
:10119000012584F83C50022084F83D0020688268D4
:1011A00022F0770222F47F4282600868502837D00C
:1011B0000DDC202859D005DC88B3102841D151E03E
:1011C000022070BD302853D040283AD13FE060283B
:1011D0002ED070280BD0B0F5805F03D0B0F5005F43
:1011E0002FD110E02068816821F0070115E0CB685D
:1011F000D1E90121206801F04CF92168886840F0AC
:10120000770088601DE0CB68D1E90121206801F0FA
:1012100040F92068816841F48041816011E01EE05E
:10122000CA684968206801F0E9F95021206806E0A1
:10123000CA684968206801F01FFA6021206801F03F
:1012400032F984F83D50002084F83C0070BDCA6833
:101250004968206801F0D2F940212068EFE70021B9
:101260002068ECE710212068E9E720212068E6E704
:1012700030212068E3E72DE9F0410D46040003D05A
:1012800094F83D0018B108E00120BDE8F08100208D
:1012900084F83C00204600F039F8022084F83D0034
:1012A0002068816821F007018160211D206801F01C
:1012B000AFF8226890689169166A2B68AF6903439A
:1012C00040F20330814341EA0721A868EF690843EF
:1012D0004FF6FC418843E96840EA0720014328694A
:1012E0002F6A000140EA0730084369686D6926F0FB
:1012F000AA0646EA05152943936022689061206892
:101300000162012084F83D000020BEE77047000024
:1013100010B50446006891B1042904D001220021CF
:1013200001F0ACF8206801225FF0040101F0A6F89A
:101330002068016841F001010160002010BD012218
:101340000021F3E770472DE9F041044690F83C0096
:101350000D4601283BD0012684F83C60022084F829
:101360003D009AB3042A44D02068082A53D0D5E916
:101370000027E968036A23F480530362D0F81CC095
:10138000036A2CF4407C4CEA07274FF6FF7C27F4D5
:1013900070470CEA01313943770323F4005307EA1D
:1013A00002321A43C16102622068C16921F44061BE
:1013B000C1612068C169AA6841EA0221C16184F85B
:1013C0003D60002084F83C00BDE8F08101E002208F
:1013D000FAE7D5E90012EB68206801F021F92068EE
:1013E000816921F00C01816120688169AA6811433B
:1013F0000FE0D5E90012EB68206801F04FF9206892
:10140000816921F44061816120688169AA6841EAAB
:1014100002218161D3E7D5E9002C2F7B016A21F4F9
:1014200080710162C169036A21F0030141EA0C0184
:1014300021F0F00C39074FF420674CEA116123F4D6
:10144000206307EA02221A43C16102622068C1696F
:1014500021F00C01C1612068C169AA681143ADE7A0
:1014600010B5040003D094F83D0010B107E001204E
:1014700010BD002084F83C00204600F00DF802204A
:1014800084F83D00211D206800F0C2FF012084F88F
:101490003D00002010BD000000B500680C4985B07B
:1014A000884212D10B48C16941F00401C161C06991
:1014B000694600F0040004904FF470700090002022
:1014C000019002900448FFF75DF905B000BD0000EF
:1014D0000008004000100240000C014070B50446B6
:1014E000006801694FF00005C943890715D4C16838
:1014F000C943890711D4E91E0161012020772068C2
:1015000080698007204602D0FFF71CFF04E000F04E
:10151000C1F8204600F044F9257720680169C943E5
:10152000490717D4C168C943490713D46FF00401B0
:101530000161022020772068806910F4407F2046F6
:1015400002D0FFF7FFFE04E000F0A4F8204600F010
:1015500027F9257720680169C943090716D4C168AE
:10156000C943090712D46FF00801016104202077F4
:101570002068C0698007204602D0FFF7E3FE04E040
:1015800000F088F8204600F00BF925772068016903
:10159000C943C90617D4C168C943C90613D46FF03B
:1015A00010010161082020772068C06910F4407F95
:1015B000204602D0FFF7C6FE04E000F06BF820469C
:1015C00000F0EEF8257720680169C943C90708D102
:1015D000C168C943C90704D1891E0161204600F0D2
:1015E00049F920680169C943090609D4C168C9439A
:1015F000090605D46FF0800101612046FFF71DFD4B
:1016000020680169C943490609D4C168C94349062C
:1016100005D46FF040010161204600F02CF92068EC
:101620000169C94389060BD4C168C943890607D437
:101630006FF0200101612046BDE87040FFF7FEBC5D
:1016400070BD00007FB50F4A016802240E48914228
:1016500005D18115CDE90014694603940FE00B4ACA
:1016600091420ED1C021CDE90014032503956946AE
:10167000FFF788F8CDE90054694605480394FFF761
:1016800081F87FBD002C01400008014000040040AB
:10169000000C0140704770B5044690F83C000D46C0
:1016A00001280DD0012684F83C60022084F83D001A
:1016B00042B1042A18D0082A2AD00C2A4DD139E088
:1016C000022070BD206800F0F7FE2068816941F0BB
:1016D000080181612068816921F00401816120682D
:1016E00081692A69114311E0206800F00DFF20682C
:1016F000816941F4006181612068816921F4806120
:101700008161206881692A6941EA0221816124E0BE
:10171000206800F025FF2068C16941F00801C1611F
:101720002068C16921F00401C1612068C1692A698A
:10173000114311E0206800F03FFF2068C16941F4C7
:101740000061C1612068C16921F48061C1612068C4
:10175000C1692A6941EA0221C16184F83D60002023
:1017600084F83C0070BD10B5040003D094F83D002F
:1017700010B107E0012010BD002084F83C00204695
:1017800000F00CF8022084F83D00211D206800F0D4
:101790003FFE012084F83D00002010BD704700008E
:1017A00070B50E4D0446A84216D1207F012807D1FE
:1017B0000B48FEF713FE0121FEF7F4FD296848638C
:1017C000207F022808D106481430FEF707FE0021CA
:1017D000FEF7E8FD2968886370BD0000D400002092
:1017E0003400002010B504460068012200F046FED7
:1017F00007492068884203D1416C41F400414164AB
:101800002068016841F001010160002010BD000066
:10181000002C014010B50268044631B1042908D0FB
:1018200008291DD00C2908D11EE0D06840F0020024
:1018300002E0D06840F00400D0600122206800F08F
:101840001DFE0B492068884203D1416C41F40041E0
:1018500041642068016841F001010160002010BD71
:10186000D06840F00800E7E7D06840F01000E3E7F8
:10187000002C0140704770477047000070B5026847
:1018800004461068D168536910F00F0F50D003F070
:10189000010501F4907635435DD0C20705D0CA0535
:1018A00003D5E26B42F00102E263420705D5DA0795
:1018B00003D0E26B42F00202E263820705D5DA0749
:1018C00003D0E26B42F00402E263020705D5DA07B7
:1018D00003D0E26B42F00802E263E26B002A33D0ED
:1018E000800604D5880602D5204600F008FF20684F
:1018F0004069E16BC0F38010090700D428B320468B
:1019000000F0EFFE2068416949061AD5416921F0CF
:1019100040014161606BA0B11B494163606BFEF700
:10192000DFFD002810D0606B416BBDE870400847B8
:10193000830610D58B060ED52046BDE8704000F01A
:10194000DEBE2046FFF798FF70BD2046FFF794FFEC
:101950000020E06370BD030606D50B0604D52046C3
:10196000BDE8704000F0CEBF4006F3D54806F1D583
:10197000D168204621F04001D160202184F839103F
:1019800000F0B1F970BD0000D326000870B5040066
:1019900004D094F83900002510B106E0012070BD94
:1019A00084F83850204600F023F8242084F83900C9
:1019B0002068C16821F40051C160204600F0EAFEB1
:1019C0002068016921F4904101612068416921F09A
:1019D0002A0141612068C16841F40051C160E5639A
:1019E000202084F8390084F83A00002070BD0000FF
:1019F0002DE9F0430546DFF844C103680024504850
:101A0000022103224F4E802785B04FF480684FF0AB
:101A10002009634531D1836943F480438361806940
:101A2000039200F4804004900802CDE90001694669
:101A30003046FEF7A7FECDE90084694630460294A1
:101A4000FEF7A0FE414E4048C6E90004C6E9024741
:101A50003461C6E905493046F461FEF737FE18B136
:101A600098213BA000F0C5FF6E630022114625209F
:101A70007562FFF703F8252038E0DFF8E4C063451E
:101A800039D1C36943F40033C361C069039200F4E0
:101A9000003004900420CDE9000169463046FEF78D
:101AA00071FE0820CDE90004694630460294FEF735
:101AB00069FE264E244844361430C6E90004C6E9BF
:101AC0000247346180147461C6E906903046FEF71F
:101AD000FDFD18B1C6211EA000F08BFF6E63002231
:101AE000114626207562FEF7C9FF2620FEF7BAFFD1
:101AF00005B0BDE8F0831B4DAB42F9D1C36943F497
:101B00008023C361C069CDE9008100F48020CDE964
:101B10000320154D69462846FEF734FEE814CDE94A
:101B20000004694628460294FEF72CFE0022114666
:101B30002720FEF7A3FF2720D8E700000038014048
:101B4000001002400008014058000240140200202A
:101B50002E2E2F5372632F75736172742E630000E3
:101B60000044004000480040000C014090F83A302A
:101B7000202B22D1F9B1F2B190F83830012B1CD0D2
:101B800081628285C2850021C163222280F83A20C9
:101B900080F838100168CA6842F48072CA6001682F
:101BA0004A6942F001024A610068C16841F02001BF
:101BB000C16000207047012070470220704700007C
:101BC0002DE9F041054612480126854212D1102127
:101BD0001048FEF7B5FE104F0024385D00F03CFBC6
:101BE000641C052CF9DB0D48067005220A490848DB
:101BF000FFF7BCFF0A48854208D10A480670BDE8D5
:101C0000F041012208490648FFF7B0BFBDE8F08166
:101C10009401002000080140000000201C0000206A
:101C2000D401002006000020800000202DE9F843A8
:101C3000044690F839001F4616460D46202850D11C
:101C4000A5B19EB194F8380001284AD0012084F84B
:101C500038004FF00008C4F83C80212084F8390097
:101C6000FEF778FEA6848146E68426E00120BDE8E2
:101C7000F883E08C401EE084A0684B46B0F5805F9E
:101C80004FF000024FF080012046009703D000F093
:101C90006AFEE8B90DE000F066FEC8B92888216840
:101CA000C0F308004860206908B16D1C05E0AD1C58
:101CB00003E0216815F8010B4860E08C0028D8D1BA
:101CC0004B46002240212046009700F04CFE08B110
:101CD0000320CCE7202084F8390084F838800020E5
:101CE000C5E70220C3E7704710B5164C002210214B
:101CF0002046FEF729FE4FF4FA70FEF719FD4FF467
:101D00007A73142210491148FFF790FF0E49FF2003
:101D10006423087001220D48FFF788FF6423012225
:101D200009490A48FFF782FF642301220649074850
:101D3000FFF77CFF20460122BDE810401021FEF78E
:101D400003BE0000000801406C000020D401002008
:101D5000FEE7000010B5012205490648FFF706FF1F
:101D6000BDE81040052204490448FFF7FFBE00000B
:101D700080000020D40100200000002094010020F9
:101D80000D4808B5416941F00101416140690022F7
:101D900000F00100009011460F20FEF76FFE0F20AB
:101DA000FEF760FE002211461020FEF767FEBDE838
:101DB00008401020FEF756BE001002402DE9F04FFB
:101DC0003E4885B0816941F010018161816901F06F
:101DD00010010491816941F020018161816901F064
:101DE00020010491816941F004018161816901F060
:101DF00004010491816941F0080181618069DFF883
:101E0000C09000F008004FF40054049000222146D6
:101E10004846FEF799FDDFF8ACA00122102150469C
:101E2000FEF792FDDFF8A0B04FF440580022414683
:101E30005846FEF789FD0125CDE90045002402261C
:101E4000CDE9024669464846FEF79CFC1F4F4FF419
:101E50004040CDE90007694602944846FEF792FCEF
:101E60001020CDE90005CDE9024669465046FEF74F
:101E700089FC2020CDE90007694602945046FEF710
:101E800081FCCDF800800396CDE90154694658469F
:101E9000FEF778FC002205211720FEF7EFFD172042
:101EA000FEF7E0FD002205212820FEF7E7FD2820AF
:101EB000FEF7D8FD05B0BDE8F08F0000001002402D
:101EC0000010014000080140000C0140000011100A
:101ED00010B52F4894B02D49016047210024C0E976
:101EE00001144FF47A71C0E9031444618461FFF76F
:101EF000FBF818B1462127A000F07BFD4FF480507D
:101F00000E900EA92248FFF73DF918B14C2121A0EF
:101F100000F06FFD1E48FFF726FC18B151211DA0EF
:101F200000F067FD129412A919481394FFF7B4F852
:101F300018B1582117A000F05CFD6020CDE9000425
:101F40000294039404940594002269461048069470
:101F5000FFF7A1FB18B164210EA000F04AFD079421
:101F6000089409944FF400500A94CDE90B4007A956
:101F700007480D94FFF763F818B1702105A000F031
:101F800038FD0348FFF75EFB14B010BD002C014084
:101F9000940000202E2E2F5372632F74696D2E63D0
:101FA0000000000010B534488EB03249016047216E
:101FB0000024C0E9011444F62061C0E903148461DF
:101FC000FFF792F818B185212CA000F012FD4FF414
:101FD0008050079007A92848FFF7D4F818B18B2143
:101FE00026A000F006FD2448FFF7BDFB18B19021A4
:101FF00022A000F0FEFC0B940BA91F480C94FFF7E5
:102000004BF818B197211DA000F0F3FC6020009060
:1020100040F2DC50CDE901040022694616480494E0
:10202000FFF739FB18B1A02114A000F0E2FC042254
:1020300069461148FFF72FFB18B1A5210FA000F04A
:10204000D8FC082269460C48FFF725FB18B1AA21E5
:102050000AA000F0CEFC0C2269460748FFF71BFBE4
:1020600018B1AF2105A000F0C4FC0348FFF7EAFA5D
:102070000EB010BD00040040D40000202E2E2F53BF
:1020800072632F74696D2E630000000030B527481D
:102090008FB025490024C0E900144FF6FF71C0E954
:1020A000024104618461FFF7DBF918B1C42120A06B
:1020B00000F09FFC032001258DE831000394049477
:1020C000CDE905450794694618480894FFF7D3F809
:1020D00018B1D22116A000F08CFC0D940DA9134864
:1020E0000E94FEF7D9FF18B1D92111A000F081FCA0
:1020F000CDE909450B94082209A90C480C94FFF777
:1021000022F918B1E2210AA000F073FC0C2209A9FF
:102110000648FFF718F9002803D0E72104A000F0D3
:1021200068FC0FB030BD0000000800401401002022
:102130002E2E2F5372632F74696D2E6300000000E2
:102140000D4810B50B4901604FF4E13141600021A9
:1021500081600C22C160C0E904128161C161FFF796
:1021600015FC002805D0BDE81040472103A000F071
:1021700040BC10BD00380140540100202E2E2F53CA
:1021800072632F75736172742E6300000D4810B571
:102190000B4901604FF4E1314160002181600C2264
:1021A000C160C0E904128161C161FFF7EFFB002843
:1021B00005D0BDE810405A2103A000F01ABC10BDA4
:1021C00000440040940100202E2E2F5372632F757F
:1021D000736172742E6300000D4810B50B490160E5
:1021E0004FF4E1314160002181600C22C160C0E9FF
:1021F00004128161C161FFF7C9FB002805D0BDE869
:1022000010406D2103A000F0F4BB10BD0048004059
:10221000D40100202E2E2F5372632F7573617274B8
:102220002E630000FEE7000000210148FFF7DABA44
:102230009400002070470907090E002806DA00F014
:102240000F0000F1E02080F8141D704700F1E0203D
:1022500080F8001470470000F0B51949174A0B7850
:1022600017785C1CE6B2174C002537B1012F08D057
:10227000022F15D0032F1AD005E0FF2803D1012526
:102280000AE0552807D015700D7000202554401C19
:102290000528FBDBF0BD02251570E0540E70F0BD83
:1022A000E0540E70042EFAD303201070F0BDFD2808
:1022B000FCD1E05415700D70F0BD00000700002047
:1022C000080000201D00002070477047174910B516
:1022D0000020487496220A74154AC860C1E900209B
:1022E0001431B42348740B74C860C1E90020143160
:1022F0001E20C8600D48FEF771F80121FEF752F864
:102300000C4C2168486309481430FEF767F8012136
:10231000FEF748F82168886300212046FFF77AFA23
:102320002046BDE810400421FFF774BA34000020B5
:102330000000F041D400002010B5FEF711FBBDE80D
:102340001040FEF776BE30B58FB001210804CDE90C
:1023500000100024029402250491CDE907504FF4A7
:10236000E01009906846FEF7C1FC00B1FEE70F20BF
:10237000CDE90A054FF48060CDE90C4002210AA89E
:102380000E94FEF7ADFB00B1FEE7FEF753FC4FF4F1
:102390007A71B0FBF1F0FEF738FE0420FEF728FE5C
:1023A00000221146501EFEF769FB0FB030BD000041
:1023B0000D48016841F00101016041680B4A11407C
:1023C000416001680A4A11400160016821F48021DE
:1023D0000160416821F4FE0141604FF41F018160FA
:1023E0000449C00308607047001002400000FFF875
:1023F000FFFFF6FE08ED00E00148FFF76FB80000B0
:10240000940000200148FFF769B800009400002004
:10241000F0B50268164B174C174D4FF080479842A5
:1024200005D0B84203D0A04201D0A84203D122F087
:1024300070064A683243984205D0B84203D0A042A1
:1024400001D0A84203D122F44074CA68224322F08A
:1024500080044A69224302608A68C2620A68826212
:10246000984201D10969016301214161F0BD000079
:10247000002C0140000400400008004010B501237A
:10248000046A8B409C430462036A8A4013430362DC
:1024900010BD10B5846842EA032224F47F440A4345
:1024A0002243826010BD826822F070020A4342F02B
:1024B000070181607047000030B5026A22F0010216
:1024C0000262026A4368846924F073050C682C4335
:1024D00022F002058A682A430A4DA8420BD122F055
:1024E0000805CA6823F440732A434D6922F00402A8
:1024F0001D438B692B4343608461496841630262D9
:1025000030BD0000002C014030B5026A22F01002FC
:102510000262026A436884690D6824F4E64444EA6E
:1025200005248D6822F0200242EA05120B4DA842D4
:102530000ED1CD6822F0800242EA05124D6923F4E3
:10254000406343EA85038D6922F0400243EA850334
:102550004360846149688163026230BD002C0140A0
:1025600030B5026A22F480720262036A4268C4696A
:1025700023F4007324F073050C682C438D6843EA40
:1025800005230C4DA8420ED1CD6823F4006343EA25
:1025900005234D6922F4405242EA05128D6923F465
:1025A000806342EA05124260C4614968C163036204
:1025B00030BD0000002C014030B5026A22F4805288
:1025C0000262046A4268C3690D6823F4E64343EA81
:1025D00005238D6824F4005444EA0534064DA842CE
:1025E00004D14D6922F4804242EA85124260C361FF
:1025F00049680164046230BD002C014010B5036AD3
:10260000046A24F001040462846924F0F00444EABA
:10261000021423F00A020A438461026210BD000022
:1026200070B5046A24F0010404628469056A0F4EDF
:10263000B04208D0B0F1804F05D00D4EB04202D06C
:102640000C4EB04203D124F00304144301E044F0E3
:1026500001041A0724F0F00444EA126225F00A0388
:1026600001F00A0119438261016270BD002C014032
:10267000000400400008004010B5036A23F0100376
:1026800003628369046A23F4704343EA023224F04C
:10269000A00343EA01118261016210BD30B5046AF2
:1026A00024F0100404628469056A24F4407444EA46
:1026B000022222F470444FF6FF7202EA03322243F0
:1026C000A02425F0A00304EA0111194382610162EC
:1026D00030BD10B5406A0021C185C184FFF7CCF838
:1026E00010BD0168CA6822F49072CA6001684A6924
:1026F00022F001024A61202180F83A10704710B59B
:1027000090F83A10222901D0022010BD8168B1F55D
:10271000805F11D00169002901681FD0496801F06C
:102720007F03816A4A1C82620B70C18D491E0904B5
:10273000090CC18518D02BE00269816A002A026861
:10274000526805D0D2B20A80816A491C8162ECE7E6
:10275000C2F308020A80816A891CF7E74A68816A25
:102760004B1C83620A70E0E70168CA6822F020020D
:10277000CA600168CA6822F48072CA6001684A6946
:1027800022F001024A61202180F83A10FFF718FA7E
:10279000002010BD2DE9F041044600680169E2689F
:1027A00021F44051114301612169A0680843616926
:1027B00008432168CA6841F20C639A430243CA6025
:1027C00020684169A26921F44071114341614C497B
:1027D00020686425322688423CD1FEF741FA00EB9E
:1027E000C00101EB001061688900B0FBF1F7FEF752
:1027F00037FA00EBC00101EB00106168B0468900B8
:10280000B0FBF1F0B0FBF5F06FF01801484307EBB7
:10281000800106EB0110B0FBF5F000F0F006FEF7CA
:102820001FFA00EBC00101EB001061688900B0FBEA
:10283000F1F0B0FBF5F006EB0016FEF711FA00EB35
:10284000C00101EB001061688900B0FBF1F7FEF7F1
:1028500007FA3BE0FEF7F4F900EBC00101EB0010D2
:1028600061688900B0FBF1F7FEF7EAF900EBC001FF
:1028700001EB00106168B0468900B0FBF1F0B0FBDD
:10288000F5F06FF01801484307EB800106EB0110EB
:10289000B0FBF5F000F0F006FEF7D2F900EBC00156
:1028A00001EB001061688900B0FBF1F0B0FBF5F0BE
:1028B00006EB0016FEF7C4F900EBC00101EB0010B7
:1028C00061688900B0FBF1F7FEF7BAF900EBC001CF
:1028D00001EB001061688900B0FBF1F0B0FBF5F08E
:1028E0006FF01801484307EB800108EB0110B0FBC3
:1028F000F5F0216800F00F0030448860BDE8F081F9
:102900000038014090F83910212901D00220704789
:102910008168B1F5805F016A0BD04A1C02620268CF
:1029200009785160C18C491E0904090CC1840ED07C
:1029300017E009880268C1F30801516001690029A4
:10294000016A02D0491C0162ECE7891CFBE70168BF
:10295000CA6822F08002CA600068C16841F0400184
:10296000C160002070472DE9F041984617460E4699
:102970000446069D1DE0681C1BD02DB1FDF7EAFF43
:10298000A0EB0800A84214D92068C16821F4D071D6
:10299000C1602068416921F001014161202084F873
:1029A000390084F83A00002084F838000320BDE89C
:1029B000F0812068006836EA000004D00020B842A8
:1029C000D9D00020F3E70120F9E700000148FEF725
:1029D00055BF0000540100200148FEF74FBF000022
:1029E000940100200148FEF749BF0000D4010020F7
:1029F000FEE7FEE702E008C8121F08C1002AFAD16C
:102A000070477047002001E001C1121F002AFBD16E
:102A100070470000FDF79EFF13490860486088601A
:102A2000C860FDF7A5FFFFF78EFCFFF7C7F9FFF7BA
:102A3000A7F9FFF785FBFFF74BFAFFF7B3FAFFF7AC
:102A400025FBFFF7C9FBFFF7A1FBFFF7EDFBFDF748
:102A500039FDFFF73BFCFFF747F9FFF77BF900BFB4
:102A6000FFF742F9FCE700000C0000200000000026
:102A7000000000000102030406070809000000002E
:102A800001020304A42A0008000000203400000012
:102A9000F4290008D82A0008340000206C06000041
:102AA000042A0008000000000000000000000000F0
:102AB0000000000000000000000000000000000016
:102AC00000000000000000000100000010000000F5
:082AD0000000000000A24A040E
:04000005080000ED02
:00000001FF
