:03000000020647AE
:0C064700787FE4F6D8FD75812102068E54
:10087B0071302E706963633D310071302E70696386
:10088B00633D30007061676520300074302E7478E2
:07089B00743D2225642200D8
:1007480060200026000000000000000000000000FB
:100758000000000000000000000000000000000091
:1007680000000000040D000000004100C700410027
:100778002100410020004100C6004100C800C10915
:0B0788004100C90044002200000000F6
:100794009000F5EBF0A3EAF0A3E9F09000FB74FFFE
:1007A400F5F01203E345F0602A9000F8E0FBA3E4BF
:1007B40075F0011203E3A9F0FA12038BFF9000F520
:1007C400E0FBA3E475F0011203E3A9F0FAEF1203CE
:0407D400D180C822E6
:1008EF00758920758DF7758BF7758C3C758AB0758A
:0D08FF009850D28ED28CD2A9D2ACD2AF22AA
:03000B000206D317
:1006D300C0E0C083C082C0D075D000C000C002C0DB
:1006E30003C005C006C007758CFF758A009000C85B
:1006F300E0FF3395E0FE9000C6E0FDFB7A00C39F68
:10070300EE6480F87480985002C293EDD3946450E1
:100713000EEB9FEE6480F8EA6480984002D29390D7
:1007230000C6E0C394644002E4F09000C6E004F025
:10073300D007D006D005D003D002D000D0D0D082CD
:05074300D083D0E0327C
:030023000205B61D
:1005B600C0E0C0F0C083C082C0D075D000C000C00B
:0705C60001C002C003C007E1
:1005CD00E4FF30985DC298AF999000C7E02426F5FE
:1005DD0082E43400F583EFF09000C7E004F0EFF40F
:1005ED00703B900021E004F0E0B403369000C7E0CA
:1005FD00FF900020F09000F87401F0A37400F0A3B8
:10060D007426F0A3E4F0A3EFF07B017A00790012D9
:10061D0007949000C7E4F0900021F0800590002130
:05062D00E4F01208EFEB
:10063200D007D003D002D001D000D0D0D082D08356
:05064200D0F0D0E03211
:0E000E00C2ACC2998F993099FDC299D2AC2232
:0B084D009000CDEBF0A3EAF0A3E9F06F
:10085800E4FDFC9000CDE0FBA3E0FAA3E0F98D8273
:100868008C831203A4FF600A12000E0DBD00010C58
:0208780080E11D
:01087A00225B
:0B090C007FFF12000E12000E02000E12
:1008C900E4FDFCC3ED9FEE6480F8EC64809850155C
:1008D900E4FBFA0BBB00010ABA03F8BBE8F50DBD4E
:0508E90000010C80DE9F
:0108EE0022E7
:10081500900001E07031900002E064017029A3E0CE
:10082500640170239000C9E0F4F07BFF600D7A0845
:10083500797B12084D12090CC293227A0879851228
:08084500084D12090CD29322A8
:1007D800900020E0FFD3943C50329000F87401F070
:1007E800A37400F0A37401F0EF24FFFEE434FFA328
:1007F800F0A3CEF07B017A0079861207949000204E
:0D080800E02485F582E43400F583E4F0225D
:10051500900004E0FFE4FCFDFE78181203F990005A
:100525002212040C900022E0F8A3E0F9A3E0FAA35C
:10053500E0FBC000900003E0FFE4FCFDFE78101234
:1005450003F9D000EB2FFFEA3EFEE93DFDE83CFC58
:1005550090002212040C900022E0F8A3E0F9A3E039
:10056500FAA3E0FBC000900002E0FFE4FCFDFE788A
:10057500081203F9D000EB2FFFEA3EFEE93DFDE846
:100585003CFC90002212040C900022E0F8A3E0F954
:10059500A3E0FAA3E0FB900001E0FFE4FCFDFEEB25
:1005A5002FFFEE3AFEED39FDEC38FC9000220204F7
:0105B5000C39
:10045E00E49000CAF0A3F0A304F053B1FD43B2023E
:10046E001208EF7F507E001208C912090C7BFF7A2A
:10047E0008798F12084D12090C7FD07E071208C919
:10048E0012090CE49000C8F0900020E060FA900091
:10049E0000E02490600C14600E240C70631208159A
:1004AE00805E1207D88059120515900022A3A3A3CF
:1004BE00E09000C8F0C3648094805004E4F0800E95
:1004CE009000C8E0D3648094E440037464F090001C
:1004DE00D074FFF0A37408F0A37496F09000C8E0F7
:1004EE00FE3395E09000D3F0A3CEF07B017A007935
:1004FE004612008B7B017A00794612084D12090CC8
:07050E00E4900020F0808161
:1006530002045EE493A3F8E493A34003F68001F25B
:1006630008DFF48029E493A3F85407240CC8C333A8
:10067300C4540F4420C8834004F456800146F6DF77
:10068300E4800B0102040810204080900748E47EB8
:10069300019360BCA3FF543F30E509541FFEE4936C
:1006A300A360010ECF54C025E060A840B8E493A333
:1006B300FAE493A3F8E493A3C8C582C8CAC583CA5E
:1006C300F0A3C8C582C8CAC583CADFE9DEE780BE16
:010793000065
:10038B00BB010689828A83E0225002E722BBFE0270
:09039B00E32289828A83E49322A3
:1003A400BB010CE58229F582E5833AF583E022500E
:1003B40006E92582F8E622BBFE06E92582F8E22258
:0D03C400E58229F582E5833AF583E4932272
:1003D100BB010689828A83F0225002F722BBFE010B
:0203E100F32205
:1003E300A3F8E0C5F025F0F0E582158270021583CD
:0603F300E0C838F0E8222A
:1003F900E8600FEFC333FFEE33FEED33FDEC33FC62
:03040900D8F12205
:0C040C00ECF0A3EDF0A3EEF0A3EFF02263
:10002600E50824D0F582E43400F583E00508229043
:1000360000CD3007039000D0E475F00112041802D9
:10004600038B2000E97F2ED2008018EF540F2490F6
:10005600D43440D4FF30040BEF24BFB41A0050034D
:100066002461FFE50960021509050CE50C7002051F
:100076000B30070E9000CDE475F001120418EF0264
:1000860003D10208A27403D2078003E4C207F5086D
:100096009000CD12042FE4F509F50BF50CE5096087
:1000A600077F2012006980F5750AFFC201C200C2EF
:1000B60002C203C205C206C208120035FF700D3027
:1000C60007057F0012007AAF0CAE0B22B4255FC283
:1000D600D5C204120035FF24D0B40A00501A75F0B8
:1000E6000A780930D50508B6FF0106C6A426F6200B
:1000F600D5047002D20380D924CFB41A00EF50047D
:10010600C2E5D20402027BD20180C6D20080C0D2F0
:100116000280BCD2D580BAD20580B47F2012006995
:100126002002077401B5090040F1120026FF1200F3
:10013600690200A3D208D2068095120026FB12009F
:1001460026FA120026F94A4B7006794C7A037BFF91
:1001560020022EE509602A7E008E82758300120336
:10016600A460060EEE650A70F0C2D5EBC0E0EAC0E8
:10017600E0E9C0E0EE1202C2D0E0F9D0E0FAD0E049
:10018600FB12038BFF60AAEBC0E0EAC0E0E9C0E027
:10019600120069D0E02401F9D0E03400FAD0E0FB87
:1001A600E50A0460DCD50AD980877BFF7A0279BE2E
:1001B600D202809C791080027908C206C2088008A3
:1001C600D2D5790A8004790AC2D5E50A047002F507
:1001D6000AE4FAFDFEFF120026FC7B08200113123A
:1001E6000026FD7B1030000A120026FE120026FFB4
:1001F6007B20EC3382D592D55013C3E43000069FA2
:10020600FFE49EFEE42001039DFDE49CFCE4CBF8A4
:10021600C201EC700CCFCECDCCE824F8F870F38098
:1002260017C3EF33FFEE33FEED33FDEC33FCEB3358
:10023600FB994002FB0FD8E9EB300105F8D0E0C48A
:1002460048B201C0E00AEC4D4E4F78207B0070C2E8
:10025600EAB50A0040BCC0E01202C4D0F0D0E020EB
:100266000104C4C0E0C4B201C0F0120052D0F0D5FF
:10027600F0EB0200A312043801405301BA580111F1
:100286004C010D4201BE4F01C64401C64901264339
:0802960001CC5501B04601B096
:10029E004501B047036C5001152D01192E013C2B61
:1002AE00011D23013A2003552A00D54800000134D0
:1002BE003F3F3F00790AA2D5200314300509B9103B
:1002CE00020404B9080104A2D5200602500104203C
:1002DE0002689202B509005034C0E07F2030031945
:1002EE007F30A20272067205500F12031BC202C2A9
:1002FE0006C205C2087F30800F300503E9C0E01248
:10030E000069300503D0E0F9D0E0B509CC3005170F
:10031E007F30B9100C1200697F583004077F788047
:10032E0003B908031200693002057F2D0200697FB0
:10033E00202008F87F2B2006F322920280CF286E11
:10034E00756C6C2900D2011200263001F8C20178BA
:10035E000930D50108F60200D52D50434958120038
:10036E00262403B405004001E49003679312005A5B
:0D037E00743A12005AD2037509040201BA44
:10041800F8E0FBA3A3E0F925F0F0E582158270026D
:070428001583E0FA38F02211
:09042F00EBF0A3EAF0A3E9F022CE
:10043800D083D082F8E4937012740193700DA3A353
:1004480093F8740193F5828883E473740293686067
:06045800EFA3A3A380DF67
:1008A200EFB40A07740D1208AD740A309811A899B2
:1008B200B8130CC2983098FDA899C298B811F630B6
:0708C20099FDC299F599228E
:00000001FF
